:100000000C9472000C9493000C9493000C94930045
:100010000C9493000C94D9040C94B4040C949300A5
:100020000C9493000C9493000C9493000C94930004
:100030000C9493000C9493000C9493000C949300F4
:100040000C9493000C9493000C9493000C949300E4
:100050000C9493000C9493000C9493000C949300D4
:100060000C9493000C9426020C9493000C9493002F
:100070000C9493000C9493000C9493000C949300B4
:100080000C9493000C9493000C9493000C949300A4
:100090000C9493000C9493000C9493000C94930094
:1000A0000C9493000C9493000C9493000C94930084
:1000B0000C9493000C9493000C9493000C94930074
:1000C0000C9493000C9493000C9493000C94930064
:1000D0000C9493000C9493000C9493000C94930054
:1000E0000C94930011241FBECFEFD1E2DEBFCDBF31
:1000F00000E00CBF13E0A0E0B2E0E2EBFCE300E0C4
:100100000BBF02C007900D92AE33B107D9F713E0D1
:10011000AEE3B3E001C01D92A33AB107E1F70E943C
:1001200003160C94571E0C9400008AEF90E0FC011B
:100130003197F1F74098419840E348B9429A22EE4E
:1001400034E0F9013197F1F74298FC013197F1F76A
:100150004098419848B9429AF9013197F1F742988D
:10016000FC013197F1F74098419848B9429AF9015A
:100170003197F1F742980197F1F74098419880E262
:1001800088B9429AC9010197F1F74298089598B148
:100190009F7098B928B1982F907F922B98B940986A
:1001A0004198429A22EE34E0F9013197F1F74298F2
:1001B00098B19F7098B998B18295807F982B98B923
:1001C00040984198429AC9010197F1F742980895E1
:1001D0008AEF90E00197F1F788E20E94C70081E082
:1001E0000E94C70086E00E94C7008EE00E94C70000
:1001F00080E80E94C700089598B19F7098B928B10F
:10020000982F907F922B98B9409A4198429A22EE6B
:1002100034E0F9013197F1F7429898B19F7098B99D
:1002200098B18295807F982B98B9409A4198429ACC
:10023000C9010197F1F74298089580E80E94C7002C
:100240000895CF93DF93EC0103C00E94FC00219638
:1002500088818823D1F7DF91CF910895823069F0AA
:10026000833018F48130A9F405C0833049F084301C
:1002700081F40BC0862F815805C0862F815402C09F
:10028000862F8D560E94C7000895862F8D520E949A
:10029000C70008950F931F93CF93DF938A01E9015D
:1002A000882311F0662319F40E941D0102C00E94E8
:1002B0002E01C530D10571F4C80160E177E20E94DA
:1002C0000C1ECB01C09690938D0380938C030E94EB
:1002D000FC0005C0C430D10511F080E016C0C80193
:1002E00068EE73E00E940C1ECB0160938E03909326
:1002F0008F036AE070E00E940C1EC0969093A003EA
:1003000080939F030E94FC0081E0C330D10521F05F
:10031000813011F080E016C0C80164E670E00E94F0
:100320000C1ECB0160938E0390938F036AE070E004
:100330000E940C1EC09690939A03809399030E948A
:10034000FC0081E0C230D10521F0813011F080E065
:1003500016C0C8016AE070E00E940C1ECB016093D9
:100360008E0390938F036AE070E00E940C1EC0968B
:1003700090939603809395030E94FC0081E0C13026
:10038000D10511F0813061F4C8016AE070E00E948B
:100390000C1EC09690939E0380939D030E94FC00C8
:1003A00026971CF085E40E94FC00DF91CF911F91FD
:1003B0000F910895A1ECB0E08C9188618C93E2ECF0
:1003C000F0E080818660808385E08093C400109295
:1003D000C5008C9180688C930895982F8091C000FF
:1003E00085FFFCCF9093C6000895282F8091C00010
:1003F00085FFFCCF2093C6008091C00085FFFCCF15
:100400009093C6008091C00085FFFCCF8AE0809366
:10041000C6000895FC0107C08091C00085FFFCCF95
:100420009093C600319690819923B1F78091C000D6
:1004300085FFFCCF8AE08093C600089586B188606E
:1004400088B9089586B1877F88B908951F920F9261
:100450000FB60F920BB60F9211242F933F934F9329
:100460005F936F937F938F939F93EF93FF9320916D
:10047000C6002093970381E090E090934B03809314
:100480004A0320939803263411F0263631F481E094
:1004900090E090936F0380936E0330910E022317C8
:1004A00021F080910F02281751F580916E039091F1
:1004B0006F03019721F580914C0390914D03892B97
:1004C000F1F48091800390918103892BA1F4E0E104
:1004D000F2E007C08091C00085FFFCCF9093C6007A
:1004E000319690819923B1F78091C00085FFFCCFB0
:1004F0008AE08093C60010926F0310926E0323353A
:1005000011F0233731F481E090E090934D03809314
:100510004C0380914C0390914D03892B09F478C1D1
:1005200080910F02281711F0231749F5409100021E
:10053000509101024130510511F580918003909155
:100540008103892BE1F41092010210920002509372
:100550004F0340934E03E8E1F2E007C08091C000F2
:1005600085FFFCCF9093C600319690819923B1F717
:100570008091C00085FFFCCF8AE08093C6002A37B7
:1005800011F02A35A1F48091000290910102892B8B
:1005900071F481E090E09093010280930002109248
:1005A0004F0310924E03909357038093560380910C
:1005B000000290910102892B09F02AC140914E035B
:1005C00050914F034130510509F022C16091500311
:1005D000709151036230710509F074C08091540329
:1005E00090915503029791F5203329F410929103CD
:1005F0001092900325C0213329F450939103409326
:1006000090031EC0223329F47093910360939003EA
:1006100017C0233319F483E090E00EC0243319F49B
:1006200084E090E009C0253319F485E090E004C02F
:10063000263331F486E090E0909391038093900309
:1006400083E090E09093550380935403809154038A
:10065000909155038130910559F5203329F410927A
:10066000A2031092A1031EC02133C1F0223319F45A
:1006700082E090E013C0233319F483E090E00EC0D1
:10068000243319F484E090E009C0253319F485E09F
:1006900090E004C0263331F486E090E09093A2030A
:1006A0008093A10382E090E09093550380935403DC
:1006B000243611F0243431F481E090E09093550316
:1006C0008093540380915203909153030197B9F59D
:1006D00061307105A1F5203329F410928B0310923B
:1006E0008A0323C0213329F470938B0360938A0318
:1006F0001CC0223319F482E090E013C0233319F4B4
:1007000083E090E00EC0243319F484E090E009C047
:10071000253319F485E090E004C0263331F486E0F7
:1007200090E090938B0380938A031092530310926E
:10073000520382E090E090935103809350034091E4
:1007400050035091510341305105B1F5809152034E
:1007500090915303892B81F5203329F410929C0347
:1007600010929B0323C0213329F450939C034093A0
:100770009B031CC0223319F482E090E013C02333A2
:1007800019F483E090E00EC0243319F484E090E083
:1007900009C0253319F485E090E004C0263331F414
:1007A00086E090E090939C0380939B0381E090E02F
:1007B0009093530380935203293611F0293431F476
:1007C00081E090E09093510380935003233611F021
:1007D0002334F1F490919B038091C00085FFFCCFFE
:1007E0009093C60090918A038091C00085FFFCCF52
:1007F0009093C6009091A1038091C00085FFFCCF2B
:100800009093C6008091C00085FFFCCF9093C600F6
:10081000FF91EF919F918F917F916F915F914F9198
:100820003F912F910F900BBE0F900FBE0F901F9016
:10083000189587B1876F87B988B1807888B908958E
:1008400010BA11BA1092070110920801089581B1EF
:100850008F6081B982B1807F82B9EAE0F1E0808166
:1008600088618083EBE0F1E0808188618083089576
:10087000E1E2F1E010829FEF9093250181E0809307
:100880002401109229019093280110922B0190933A
:100890002A0110922D0190932C0189EA8093200166
:1008A0008BE080830895EAE7F0E0108210927B00ED
:1008B00080E280937C0080E880BF86E88083089592
:1008C000982F883018F088E080937B0097709062B2
:1008D00090937C0080917A00806480937A0080916C
:1008E0007A0084FFFCCF8091790090917A0090612A
:1008F00090937A0010927B0008950F931F93182F06
:10090000062F842F0E946004482F80939203812F2A
:10091000602F50E023E030E00E944A011F910F91C8
:1009200008958093280160932A01089592B1907FE1
:100930008F70892B82B908956C98749A08956D9878
:10094000759A0895F894EAE6F0E0808182608083E9
:10095000EC9A78940895F894EAE6F0E08081886053
:100960008083ED9A789408951F920F920FB60F929C
:1009700011248F939F93AF93BF93809142039091E3
:100980004303A0914403B09145030196A11DB11DFD
:100990008093420390934303A0934403B093450391
:1009A000BF91AF919F918F910F900FBE0F901F90AD
:1009B00018951F920F920FB60F9211248F939F9349
:1009C000AF93BF9380913E0390913F03A09140036A
:1009D000B09141030196A11DB11D80933E039093F8
:1009E0003F03A0934003B0934103BF91AF919F9108
:1009F0008F910F900FBE0F901F90189582B1807F3E
:100A0000866082B9089582B1807F896082B9089535
:100A100082B1807F856082B9089582B1807F8A60CB
:100A200082B9089582B1807F846082B9089582B1CD
:100A3000807F826082B9089582B1807F816082B9AF
:100A4000089582B1807F886082B9089582B1807FE5
:100A500082B9089510924203109243031092440306
:100A60001092450310923E0310923F0310924003F0
:100A700010924103A0E0B0E0BC01CD010E949E1B9A
:100A800028E431EE42E850E40E940E1A0E943E171C
:100A9000672B21F482B1807F82B90895FFCF109235
:100AA0004203109243031092440310924503FFCF78
:100AB00022B1207F266022B90E944F05089522B1FD
:100AC000207F296022B90E944F05089522B1207F1E
:100AD000256022B90E942A05089522B1207F2A604C
:100AE00022B90E942A05089587B1876F87B988B116
:100AF000807888B910BA11BA1092070110920801D3
:100B000081B18F6081B982B1807F82B9EAE0F1E082
:100B1000808188618083EBE0F1E08081886180835F
:100B20006C98749A6D98759A0895F8940E9474055B
:100B3000F894EAE6F0E0808182608083EC9A789411
:100B4000F894EAE6F0E0808188608083ED9A7894FA
:100B5000EAE7F0E0108210927B0080E280937C0054
:100B600080E880BF86E88083E1E2F1E010829FEFB9
:100B70009093250181E080932401109229019093A4
:100B8000280110922B0190932A0110922D0190932D
:100B90002C0189EA809320018BE08083A1ECB0E0F6
:100BA0008C9188618C93E2ECF0E080818660808398
:100BB00085E08093C4001092C5008C9180688C936E
:100BC0007894089583E00E9460048093460382E055
:100BD0000E9460048093470381E00E946004809338
:100BE00048030895CF93DF930E94E20582E063E01B
:100BF00047E050E021E030E00E944A01C0E0D0E050
:100C00005CC082E063E045E050E021E030E00E941B
:100C10004A0182E090E00E9466050E94E205809110
:100C20004703803408F056C080914603803408F0B2
:100C300051C080914803803408F04CC084E090E0BB
:100C40000E946D050E94E20580914703803408F000
:100C500041C0809146038034E8F580914803803498
:100C6000C8F582E090E00E946D050E94E205809147
:100C70004703803478F580914603803458F580919D
:100C80004803803438F584E090E00E9466050E94B5
:100C9000E205809147038034E8F480914603803474
:100CA000C8F4809148038034A8F485E090E00E9465
:100CB0005F05C531D10571F02196809147038034DD
:100CC00048F480914603803428F4809148038034AE
:100CD00008F497CFDF91CF91089585E00E946004DA
:100CE0008093660386E00E9460048093690387E036
:100CF0000E946004809367038BE00E9460048093ED
:100D000068030895AF92BF92CF92DF92EF92FF9265
:100D10000F931F93CF93DF930E946D06C9E1D0E03C
:100D200047C082B1807F82B96091340270913502F0
:100D300080E090E00E949E1B5B016C0120E030E0AF
:100D40004AE753E40E9414197B018C0120E030E053
:100D500040E85FE30E941A1B88231CF461E070E006
:100D600022C0C801B70120E03FEF4FE757E40E94DF
:100D7000BA1A1816A4F4C601B50120E030E040E22A
:100D800051E40E9414190E943E1705C0CE0101973C
:100D9000F1F76150704061157105C1F707C0C801D6
:100DA000B7010E943E17CB010197F1F70E946D0633
:100DB0008091680390E02091040230910502281789
:100DC000390708F4AECF20910602309107028091D6
:100DD000690390E08217930708F4A3CF809166031C
:100DE00090E08217930708F49CCF8091670390E00E
:100DF0008217930708F495CFDF91CF911F910F9140
:100E0000FF90EF90DF90CF90BF90AF9008951F9329
:100E10000E94E20582E063E048E050E021E030E03B
:100E20000E944A0111E087C00E9482068091470318
:100E3000803460F080914603803440F08091480314
:100E4000803420F481E090E00E94660580914703A1
:100E5000803460F080914603803440F480914803F0
:100E6000803420F081E090E00E946D05809147037E
:100E7000803460F080914603803440F480914803D0
:100E8000803420F485E090E00E945805809147036B
:100E9000803460F480914603803440F480914803AC
:100EA000803420F082E090E00E946D05809147033D
:100EB000803460F480914603803440F08091480390
:100EC000803420F482E090E00E9466058091470320
:100ED000803450F480914603803430F4809148038C
:100EE000803410F40E94F2050E94E2050E946D0613
:100EF0008091680390E02091040230910502281748
:100F00003907A0F020910602309107028091690311
:100F100090E08217930750F08091660390E082176B
:100F2000930720F080916703882329F010935C03D6
:100F300082B1807F82B980914703803408F474CFF6
:100F400080914603803408F46FCF80914803803449
:100F500008F46ACF8AE590E00E9458051F91089531
:100F6000AF92BF92CF92DF92EF92FF920F931F93B7
:100F7000CF93DF9380917E0390917F03892B09F0BB
:100F800012C28091780390917903833091050CF41B
:100F90007CC082E063E049E050E021E030E00E9464
:100FA0004A0180E29EE429E130E0F9013197F1F74E
:100FB0000197D9F70E946D068091680390E0209117
:100FC00004023091050228173907B8F02091060273
:100FD000309107028091690390E08217930768F0CF
:100FE0008091660390E08217930738F08091670341
:100FF00090E08217930708F0CEC20E946D0684EB42
:1010000090E00E946D058EE190E00E945F050E94D5
:101010006D060E9407078AE590E00E9466054091F0
:101020007603509177030CC00E9407074091760326
:10103000509177034150504050937703409376038B
:1010400082E061E022E030E00E944A018091760374
:10105000909177038130910539F7909364038093E1
:10106000630380914703803408F49FC08091460356
:10107000803408F49AC080914803803408F495C005
:101080008AE590E00E94660586C2181619060CF4DF
:1010900090C082E063E049E050E021E030E00E944F
:1010A0004A0180E29EE429E130E0F9013197F1F74D
:1010B0000197D9F70E946D068091680390E0209116
:1010C00004023091050228173907B8F02091060272
:1010D000309107028091690390E08217930768F0CE
:1010E0008091660390E08217930738F08091670340
:1010F00090E08217930708F04EC20E946D0684EBC1
:1011000090E00E946D058EE190E00E945F050E94D4
:101110006D060E9407078AE590E00E946D054091E8
:101120007603509177031FC00E9407070E94E205D3
:1011300004C085E090E00E94580580914703803408
:1011400040F080914603803420F080914803803441
:1011500080F740917603509177034150504050936F
:1011600077034093760382E061E022E030E00E9462
:101170004A01809176039091770381309105A1F621
:10118000909364038093630380914703803468F0F5
:1011900080914603803448F080914803803428F0E1
:1011A0008AE590E00E946D05F6C186B1886088B935
:1011B000F2C1019709F0F7C0809163039091640335
:1011C000019709F0F0C082E063E049E050E021E0DF
:1011D00030E00E944A0180E29EE429E130E0F9011A
:1011E0003197F1F70197D9F70E946D068091680356
:1011F00090E0209104023091050228173907B8F0D9
:1012000020910602309107028091690390E08217D5
:10121000930768F08091660390E08217930738F097
:101220008091670390E08217930708F0B4C18CE3C4
:1012300090E00E945F0582B1807F82B960913402A4
:101240007091350280E090E00E949E1B5B016C0172
:1012500020E030E04AE753E40E9414197B018C013E
:1012600020E030E040E85FE30E941A1B88231CF472
:1012700061E070E024C0C801B70120E03FEF4FE714
:1012800057E40E94BA1A1816B4F4C601B50120E05A
:1012900030E040E251E40E9414190E943E1789E1B7
:1012A00090E005C0FC013197F1F761507040611585
:1012B0007105C1F707C0C801B7010E943E17CB01F5
:1012C0000197F1F70E946D06C9E1D0E047C082B1F5
:1012D000807F82B9609134027091350280E090E0A5
:1012E0000E949E1B5B016C0120E030E04AE753E462
:1012F0000E9414197B018C0120E030E040E85FE39C
:101300000E941A1B88231CF461E070E022C0C8010F
:10131000B70120E03FEF4FE757E40E94BA1A1816D2
:10132000A4F4C601B50120E030E040E251E40E949F
:1013300014190E943E1705C0CE010197F1F76150C4
:10134000704061157105C1F707C0C801B7010E945F
:101350003E17CB010197F1F70E946D06809168035B
:1013600090E020910402309105022817390708F413
:10137000AECF20910602309107028091690390E080
:101380008217930708F4A3CF8091660390E0821739
:10139000930708F49CCF8091670390E0821793072E
:1013A00008F495CFF8C08091760390917703039766
:1013B0000CF4EFC0809178039091790302970CF4BC
:1013C000E8C080E29EE429E130E0F9013197F1F7CD
:1013D0000197D9F70E946D068091680390E02091F3
:1013E00004023091050228173907B8F0209106024F
:1013F000309107028091690390E08217930768F0AB
:101400008091660390E08217930738F0809167031C
:1014100090E08217930708F0BEC08CE390E00E9432
:101420005F0582B1807F82B960913402709135028C
:1014300080E090E00E949E1B5B016C0120E030E0A8
:101440004AE753E40E9414197B018C0120E030E04C
:1014500040E85FE30E941A1B88231CF461E070E0FF
:1014600024C0C801B70120E03FEF4FE757E40E94D6
:10147000BA1A1816B4F4C601B50120E030E040E213
:1014800051E40E9414190E943E1789E190E005C0C2
:10149000FC013197F1F76150704061157105C1F79A
:1014A00007C0C801B7010E943E17CB010197F1F7B1
:1014B0000E946D06C9E1D0E047C082B1807F82B949
:1014C000609134027091350280E090E00E949E1B92
:1014D0005B016C0120E030E04AE753E40E941419FC
:1014E0007B018C0120E030E040E85FE30E941A1BA2
:1014F00088231CF461E070E022C0C801B70120E03D
:101500003FEF4FE757E40E94BA1A1816A4F4C60139
:10151000B50120E030E040E251E40E9414190E943D
:101520003E1705C0CE010197F1F76150704061157B
:101530007105C1F707C0C801B7010E943E17CB0172
:101540000197F1F70E946D068091680390E0209169
:101550000402309105022817390708F4AECF209114
:101560000602309107028091690390E08217930789
:1015700008F4A3CF8091660390E08217930708F4E4
:101580009CCF8091670390E08217930708F495CF72
:1015900002C00E948206DF91CF911F910F91FF90B0
:1015A000EF90DF90CF90BF90AF9008950F931F936F
:1015B0008AE090E00E9458058AE590E00E94660566
:1015C00010925C030E94E2050E946D060E94820652
:1015D00001E007C00E946D0600935C0382B1807F2A
:1015E00082B98091680390E0209104023091050255
:1015F0002817390778F3209106023091070280916D
:10160000690390E08217930728F38091660390E0C6
:1016100082179307F8F28091670390E0821793078F
:10162000C8F201E00E94E2050E946D0610925C0380
:101630008091680390E02091040230910502281700
:101640003907B0F0209106023091070280916903BA
:1016500090E08217930760F08091660390E0821714
:10166000930730F08091670390E08217930728F486
:1016700082B1807F82B900935C03809147038134FB
:1016800068F080914603813458F08091480381349A
:1016900038F080915C03882319F479C0803480F09D
:1016A00080914603803460F080914803803440F498
:1016B00080915C03882321F481E090E00E9466051C
:1016C00080914703803480F080914603803460F439
:1016D00080914803803440F080915C03882321F49A
:1016E00081E090E00E946D0580914703803480F096
:1016F00080914603803460F480914803803440F444
:1017000080915C03882321F485E090E00E945805D5
:1017100080914703803480F480914603803460F4E4
:1017200080914803803440F080915C03882321F449
:1017300082E090E00E946D0580914703803480F440
:1017400080914603803460F080914803803440F4F7
:1017500080915C03882321F482E090E00E9466057A
:1017600080914703803408F05DCF80914603803438
:1017700008F058CF80914803803408F053CF80910F
:101780005C03882309F04ECF0E94F2054BCF80E521
:1017900090E00E94580508EA11E6C8010197F1F7A8
:1017A0008AE590E00E946605C8010197F1F78FE095
:1017B00090E00E945F0582B1807F82B91F910F91F6
:1017C00008957F928F929F92AF92BF92CF92DF92B5
:1017D000EF92FF920F931F93CF93DF930E94E20546
:1017E0000E946D061092490310925C03809176036B
:1017F0009091770390939C0380939B03809178034F
:101800009091790390938B0380938A0381E061E048
:1018100043E00E947D0481E065E042E00E947D0497
:1018200081E069E041E00E947D044091760350919F
:10183000770382E061E022E030E00E944A014091BB
:1018400078035091790382E065E022E030E00E9465
:101850004A0199249394C9E1D0E051C090925C036D
:1018600082B1807F82B986B1886088B96091340284
:101870007091350280E090E00E949E1B5B016C013C
:1018800020E030E04AE753E40E9414197B018C0108
:1018900020E030E040E85FE30E941A1B88231CF43C
:1018A00061E070E022C0C801B70120E03FEF4FE7E0
:1018B00057E40E94BA1A1816A4F4C601B50120E034
:1018C00030E040E251E40E9414190E943E1705C026
:1018D000CE010197F1F76150704061157105C1F7B4
:1018E00007C0C801B7010E943E17CB010197F1F76D
:1018F00086B1877F88B90E946D060E94B0078091EB
:10190000680390E0209104023091050228173907FE
:1019100008F4A4CF20910602309107028091690358
:1019200090E08217930708F499CF8091660390E0C6
:101930008217930708F492CF8091670390E0821793
:10194000930708F48BCF83C00E946D064BC0709242
:101950005C0382B1807F82B960913402709135025C
:1019600080E090E00E949E1B5B016C0120E030E073
:101970004AE753E40E9414197B018C0120E030E017
:1019800040E85FE30E941A1B88231CF461E070E0CA
:1019900022C0C801B70120E03FEF4FE757E40E94A3
:1019A000BA1A1816A4F4C601B50120E030E040E2EE
:1019B00051E40E9414190E943E1705C0C40101970A
:1019C000F1F76150704061157105C1F707C0C8019A
:1019D000B7010E943E17CB010197F1F70E946D06F7
:1019E0000E94B0078091680390E02091040230913A
:1019F00005022817390708F4AACF20910602309172
:101A000007028091690390E08217930708F49FCF43
:101A10008091660390E08217930708F498CF809135
:101A2000670390E08217930708F491CF70924903FF
:101A3000D0935903C093580385E090E00E94580565
:101A400010927B0310927A030E94E20507C059E1CD
:101A5000852E912C77247394C1E0D0E080914703C8
:101A6000803408F495C080914603803408F090C01B
:101A700080914803803408F08BC080915C038823F8
:101A800009F462CF85C00E946D064BC070925C0362
:101A900082B1807F82B9609134027091350280E01A
:101AA00090E00E949E1B5B016C0120E030E04AE761
:101AB00053E40E9414197B018C0120E030E040E8DF
:101AC0005FE30E941A1B88231CF461E070E022C0CF
:101AD000C801B70120E03FEF4FE757E40E94BA1A70
:101AE0001816A4F4C601B50120E030E040E251E44C
:101AF0000E9414190E943E1705C0C4010197F1F716
:101B00006150704061157105C1F707C0C801B70188
:101B10000E943E17CB010197F1F70E946D060E94CB
:101B2000B0078091680390E0209104023091050293
:101B30002817390708F4AACF20910602309107022E
:101B40008091690390E08217930708F49FCF8091FA
:101B5000660390E08217930708F498CF809167039B
:101B600090E08217930708F491CFD0935903C09364
:101B7000580382E090E00E94660585E090E00E94B4
:101B8000580510927B0310927A030E94E20507C069
:101B900049E1842E912C77247394C2E0D0E08091A7
:101BA0004703803408F495C080914603803408F4DC
:101BB00090C080914803803408F08BC080915C0312
:101BC000882309F460CF85C00E946D064BC07092D7
:101BD0005C0382B1807F82B96091340270913502DA
:101BE00080E090E00E949E1B5B016C0120E030E0F1
:101BF0004AE753E40E9414197B018C0120E030E095
:101C000040E85FE30E941A1B88231CF461E070E047
:101C100022C0C801B70120E03FEF4FE757E40E9420
:101C2000BA1A1816A4F4C601B50120E030E040E26B
:101C300051E40E9414190E943E1705C0C401019787
:101C4000F1F76150704061157105C1F707C0C80117
:101C5000B7010E943E17CB010197F1F70E946D0674
:101C60000E94B0078091680390E0209104023091B7
:101C700005022817390708F4AACF209106023091EF
:101C800007028091690390E08217930708F49FCFC1
:101C90008091660390E08217930708F498CF8091B3
:101CA000670390E08217930708F491CFD09359030C
:101CB000C093580382E090E00E946D0585E090E0BB
:101CC0000E94580510927B0310927A030E94E2054D
:101CD00007C039E1832E912C77247394C3E0D0E0C0
:101CE00080914703803408F495C080914603803486
:101CF00008F090C080914803803408F48BC0809134
:101D00005C03882309F460CF85C00E946D064BC038
:101D100070925C0382B1807F82B9609134027091CD
:101D2000350280E090E00E949E1B5B016C0120E088
:101D300030E04AE753E40E9414197B018C0120E053
:101D400030E040E85FE30E941A1B88231CF461E046
:101D500070E022C0C801B70120E03FEF4FE757E431
:101D60000E94BA1A1816A4F4C601B50120E030E0AA
:101D700040E251E40E9414190E943E1705C0C401BC
:101D80000197F1F76150704061157105C1F707C007
:101D9000C801B7010E943E17CB010197F1F70E94DD
:101DA0006D060E94B0078091680390E020910402C4
:101DB000309105022817390708F4AACF20910602AE
:101DC000309107028091690390E08217930708F42D
:101DD0009FCF8091660390E08217930708F498CF15
:101DE0008091670390E08217930708F491CFD09316
:101DF0005903C093580385E090E00E946D0582E08E
:101E000090E00E94580510927B0310927A030E9482
:101E1000E20507C029E1822E912C77247394C4E057
:101E2000D0E080914703803408F095C0809146034C
:101E3000803408F090C080914803803408F48BC04F
:101E400080915C03882309F460CF85C00E946D06F1
:101E50004BC070925C0382B1807F82B96091340282
:101E60007091350280E090E00E949E1B5B016C0146
:101E700020E030E04AE753E40E9414197B018C0112
:101E800020E030E040E85FE30E941A1B88231CF446
:101E900061E070E022C0C801B70120E03FEF4FE7EA
:101EA00057E40E94BA1A1816A4F4C601B50120E03E
:101EB00030E040E251E40E9414190E943E1705C030
:101EC000C4010197F1F76150704061157105C1F7C8
:101ED00007C0C801B7010E943E17CB010197F1F777
:101EE0000E946D060E94B0078091680390E02091E7
:101EF0000402309105022817390708F4AACF20916F
:101F00000602309107028091690390E082179307DF
:101F100008F49FCF8091660390E08217930708F43E
:101F200098CF8091670390E08217930708F491CFD0
:101F3000D0935903C093580385E090E00E94660552
:101F400082E090E00E94580510927B0310927A0381
:101F50000E94E20507C099E1892E912C77247394A1
:101F6000C5E0D0E08091470390914603803470F43F
:101F7000903408F4C4C080914803813408F0BFC095
:101F800080915C03882309F461CFB9C0903408F4D0
:101F9000B6C080914803803408F4B1C080914903F1
:101FA000882309F0ACC08091580390915903863082
:101FB000910509F4A4C0099709F4A1C080915C03BC
:101FC000882309F09CC086E090E0909359038093A9
:101FD000580381E08093490310927B0310927A03A7
:101FE00082B1807F82B98091840390918503892B8F
:101FF00099F480915A0390915B032091780330917A
:102000007903019719F42150304002C02F5F3F4FF0
:102010003093790320937803809184039091850312
:10202000019749F4809176039091770301979093FB
:1020300077038093760385E090E00E945805209115
:1020400078033091790380910C0290910D0228174A
:10205000390709F040C080917E0390917F03892B5E
:1020600009F039C088E893E129E130E0F9013197BE
:10207000F1F70197D9F781E090E090938503809381
:10208000840382E390E00E94580580915A03909166
:102090005B03019729F48AE590E00E946D0504C076
:1020A0008AE590E00E94660588E893E129E130E046
:1020B000F9013197F1F70197D9F782B1807F8660F6
:1020C00082B981E090E090937F0380937E0384E166
:1020D00090E00E945805209176033091770380911B
:1020E0000A0290910B022817390749F488E893E116
:1020F00029E130E0F9013197F1F70197D9F7209103
:1021000076033091770380910A0290910B02281791
:102110003907B9F5209178033091790380910C0249
:1021200090910D022817390761F51092590310920A
:10213000580382E390E00E945805109257031092D2
:10214000560381E090E090936D0380936C031092AE
:1021500083031092820310928503109284031092DD
:102160007F0310927E0310927B0310927A0384E621
:1021700090E0909303028093020210925B0310920E
:102180005A0380914703803408F095C0809146033C
:10219000803408F090C080914803803408F08BC0F0
:1021A00080915C03882309F086C088E090E09093DA
:1021B0005903809358030E94F2057DC00E946D066A
:1021C0004BC070925C0382B1807F82B9609134020F
:1021D0007091350280E090E00E949E1B5B016C01D3
:1021E00020E030E04AE753E40E9414197B018C019F
:1021F00020E030E040E85FE30E941A1B88231CF4D3
:1022000061E070E022C0C801B70120E03FEF4FE776
:1022100057E40E94BA1A1816A4F4C601B50120E0CA
:1022200030E040E251E40E9414190E943E1705C0BC
:10223000C4010197F1F76150704061157105C1F754
:1022400007C0C801B7010E943E17CB010197F1F703
:102250000E946D060E94B0078091680390E0209173
:102260000402309105022817390708F4AACF2091FB
:102270000602309107028091690390E0821793076C
:1022800008F49FCF8091660390E08217930708F4CB
:1022900098CF8091670390E08217930708F491CF5D
:1022A00085E090E00E945805D0935903C0935803ED
:1022B0000E94E20507C089E1882E912C772473944F
:1022C000C9E0D0E0809147038034B0F080914603AC
:1022D000803490F080914803803470F080915803EE
:1022E000909159038630910511F0099729F4809156
:1022F0005C03882309F462CF80916C0390916D0395
:10230000019711F40E94D60A81E090E0DF91CF910D
:102310001F910F91FF90EF90DF90CF90BF90AF9003
:102320009F908F907F900895AF92BF92CF92DF924F
:10233000EF92FF920F931F93CF93DF930E946D064E
:10234000C9E1D0E047C082B1807F82B9609132029A
:102350007091330280E090E00E949E1B5B016C0153
:1023600020E030E04AE753E40E9414197B018C011D
:1023700020E030E040E85FE30E941A1B88231CF451
:1023800061E070E022C0C801B70120E03FEF4FE7F5
:1023900057E40E94BA1A1816A4F4C601B50120E049
:1023A00030E040E251E40E9414190E943E1705C03B
:1023B000CE010197F1F76150704061157105C1F7C9
:1023C00007C0C801B7010E943E17CB010197F1F782
:1023D0000E946D068091680390E020910402309184
:1023E00005022817390708F4AECF20910602309174
:1023F00007028091690390E08217930708F4A3CF46
:102400008091660390E08217930708F49CCF809137
:10241000670390E08217930708F495CFDF91CF917F
:102420001F910F91FF90EF90DF90CF90BF90AF90F2
:102430000895FF920F931F93CF93DF938C010E9417
:10244000E205C0E0D0E0FF24F3940E94E2050E9480
:102450006D0610925C038091680390E02091040265
:102460003091050228173907B0F02091060230910B
:1024700007028091690390E08217930760F08091D2
:10248000660390E08217930730F08091670390E035
:102490008217930728F482B1807F82B9F0925C039F
:1024A000C017D1070CF091C080914703803480F0B1
:1024B00080914603803460F080914803803440F47A
:1024C00080915C03882321F481E090E00E946605FE
:1024D00080914703803480F080914603803460F41B
:1024E00080914803803440F080915C03882321F47C
:1024F00081E090E00E946D0580914703803488F070
:1025000080914603803468F480914803803448F415
:1025100080915C03882329F485E090E00E945805AF
:10252000259680914703803488F08091460380345B
:1025300068F080914803803448F080915C038823E0
:1025400029F485E090E00E94580525968091470384
:10255000803480F480914603803460F48091480395
:10256000803440F080915C03882321F482E090E085
:102570000E946D0580914703803480F4809146036A
:10258000803460F080914803803440F480915C0393
:10259000882321F482E090E00E9466058091470341
:1025A000803408F052CF80914603803408F04DCF3C
:1025B00080914803803408F048CF80915C038823E1
:1025C00009F043CF0E94F20540CFDF91CF911F91D8
:1025D0000F91FF9008959F92AF92BF92CF92DF929A
:1025E000EF92FF920F931F93CF93DF930E94E20528
:1025F0000E946D061092490310925C03809176034D
:102600009091770390939C0380939B038091780330
:102610009091790390938B0380938A0381E061E02A
:1026200043E00E947D0481E065E042E00E947D0479
:1026300081E069E041E00E947D0440917603509181
:10264000770382E061E022E030E00E944A0140919D
:1026500078035091790382E065E022E030E00E9447
:102660004A0199249394C9E1D0E051C090925C034F
:1026700082B1807F82B986B1886088B96091320268
:102680007091330280E090E00E949E1B5B016C0120
:1026900020E030E04AE753E40E9414197B018C01EA
:1026A00020E030E040E85FE30E941A1B88231CF41E
:1026B00061E070E022C0C801B70120E03FEF4FE7C2
:1026C00057E40E94BA1A1816A4F4C601B50120E016
:1026D00030E040E251E40E9414190E943E1705C008
:1026E000CE010197F1F76150704061157105C1F796
:1026F00007C0C801B7010E943E17CB010197F1F74F
:1027000086B1877F88B90E946D060E9494118091DE
:10271000680390E0209104023091050228173907E0
:1027200008F4A4CF2091060230910702809169033A
:1027300090E08217930708F499CF8091660390E0A8
:102740008217930708F492CF8091670390E0821775
:10275000930708F48BCF10925C03FF24F39401E0FD
:1027600010E012C00E949411F09249031093590393
:102770000093580385E090E00E94580510927B0377
:1027800010927A030E94E20580914703803410F191
:10279000809146038034F0F4809148038034D0F473
:1027A00080915C038823F1F215C00E94941110936C
:1027B00059030093580382E090E00E94660585E08B
:1027C00090E00E94580510927B0310927A030E94B9
:1027D000E20502C002E010E080914703803410F16E
:1027E000809146038034F0F0809148038034D0F427
:1027F00080915C038823C9F215C00E949411109344
:1028000059030093580382E090E00E946D0585E033
:1028100090E00E94580510927B0310927A030E9468
:10282000E20502C003E010E080914703803410F11C
:10283000809146038034F0F4809148038034D0F0D6
:1028400080915C038823C9F215C00E9494111093F3
:1028500059030093580385E090E00E946D051092A3
:102860007B0310927A0382E090E00E9458050E9458
:10287000E20502C004E010E080914703803410F5C7
:10288000809146038034F0F4809148038034D0F086
:1028900080915C038823C9F215C00E9494111093A3
:1028A00059030093580385E090E00E94660510925A
:1028B0007B0310927A0382E090E00E9458050E9408
:1028C000E20502C005E010E08091470390914603C5
:1028D000803468F4903408F4D1C080914803813486
:1028E00008F0CCC080915C038823B9F2C7C0903453
:1028F00008F4C4C080914803803408F4BFC08091BC
:102900004903882309F0BAC0809158039091590374
:102910008630910509F4B2C0099709F4AFC08091DF
:102920005C03882309F0AAC086E090E090935903E5
:102930008093580381E08093490310927B031092A7
:102940007A0382B1807F82B9809182039091830360
:10295000892B49F4809176039091770301969093A7
:10296000770380937603809182039091830301978C
:1029700099F480915D0390915E03209178033091EA
:102980007903019719F42F5F3F4F02C02150304067
:10299000309379032093780385E090E00E945805F6
:1029A000209176033091770380910A0290910B0277
:1029B00028173907D1F580917C0390917D03892BED
:1029C000A1F580915C03882381F581E090E09093EC
:1029D00083038093820386E490E00E9458058091EF
:1029E0005D0390915E03019729F48AE590E00E94CF
:1029F000660504C08AE590E00E946D0588E893E1D1
:102A000029E130E0F9013197F1F70197D9F782B167
:102A1000807F866082B981E090E090937D0380930F
:102A20007C0389E190E00E94580580915D039091BC
:102A30005E03209178033091790340910C0250910C
:102A40000D02019769F424173507C1F488E893E172
:102A500029E130E0F9013197F1F70197D9F70EC07C
:102A60004F5F5F4F2417350749F488E893E129E168
:102A700030E0F9013197F1F70197D9F7209176030A
:102A80003091770380910A0290910B022817390741
:102A900009F070C0409178035091790320910C02A5
:102AA00030910D024217530731F480915D039091EC
:102AB0005E03019769F02F5F3F4F4217530709F0FC
:102AC00059C080915D0390915E03892B09F052C03B
:102AD00080915C03882309F04DC087E090E09093DB
:102AE00059038093580380915D0390915E03019791
:102AF00019F48EE091E002C088EC90E00E94191277
:102B000080915D0390915E03019759F48AE590E00E
:102B10000E946605209102023091030248E95AE3BF
:102B20000AC08AE590E00E946D05F4CFCA010197C2
:102B3000F1F72150304021153105C1F710925703AC
:102B40001092560381E090E090936B0380936A03A8
:102B5000109283031092820310927D0310927C03E3
:102B600010927B0310927A0384E690E09093030224
:102B700080930202809147038034E0F48091460301
:102B80008034C0F4809148038034A0F480915C03C9
:102B9000882381F40E94F2050DC01093590300931D
:102BA00058030E94941182E090E00E9458050E9410
:102BB000E20502C009E010E0809147038034A8F0EC
:102BC00080914603803488F080914803803468F017
:102BD00080915803909159038630910511F009971F
:102BE00021F480915C038823C1F281E090E0DF91C1
:102BF000CF911F910F91FF90EF90DF90CF90BF90FA
:102C0000AF909F9008959F92AF92BF92CF92DF9224
:102C1000EF92FF920F931F93CF93DF9310925C0379
:102C2000FAE09F2EE1E0CE2ED12C09E110E078EA07
:102C3000A72E71E6B72E62E0E62EF12C0E949505D4
:102C40000E9495000E94E80010926D0310926C03A0
:102C500010926403109263034091560350915703FE
:102C60004130510509F009C18091A1039091A2035F
:102C700090930B0280930A0220919003309191036C
:102C800030930D0220930C0280919B0390919C0342
:102C9000909377038093760380918A0390918B03BE
:102CA00090937903809378032817390728F41092BA
:102CB0005E0310925D0304C050935E0340935D0376
:102CC000E0E2F2E007C08091C00085FFFCCF909366
:102CD000C600319690819923B1F78091C00085FF9D
:102CE000FCCF9092C600D0928103C092800386B13F
:102CF000877F88B90E94EB1280916A0390916B03E1
:102D0000019789F784E00E94600480936503C0E026
:102D1000D0E016C082B1807F82B986B1886088B960
:102D200088E893E1F8013197F1F70197D9F784E04A
:102D30000E946004809365032196CB30D10551F049
:102D40008091650390E0209108023091090282177A
:102D5000930700F386B1877F88B980E197E2F80195
:102D60003197F1F70197D9F780E197E2F8013197B0
:102D7000F1F70197D9F7409190035091910382E0C8
:102D800068E021E030E00E944A01409178035091D0
:102D9000790382E06AE021E030E00E944A018091FC
:102DA000900390919103029710F18AE590E00E94C0
:102DB000660510920B0210920A02F0920D02E09248
:102DC0000C028091A1039091A203909377038093CA
:102DD00076038091900390919103019690937903EB
:102DE00080937803D0925B03C0925A0327C08AE590
:102DF00090E00E946D05C5010197F1F782E390E034
:102E00000E945F0510920B0210920A02F0920D02CE
:102E1000E0920C028091A1039091A203909377031A
:102E2000809376038091900390919103909379031E
:102E30008093780310925B0310925A0310926B03F5
:102E400010926A0386B1877F88B90E94E10B809156
:102E50006C0390916D030197A9F780E197E2F80167
:102E60003197F1F70197D9F710924D0310924C0367
:102E70001092810310928003E1CEFFCFEF92FF9278
:102E80000F931F937B018C0120E030E040E05FE472
:102E90000E94EA1A88238CF0C801B70120E030E0D4
:102EA00040E05FE40E94B6180E944A1B9B01AC01FF
:102EB000205030404040504806C0C801B7010E9431
:102EC0004A1B9B01AC01B901CA011F910F91FF90F0
:102ED000EF900895A0E0B0E0E0E7F7E10C94201E49
:102EE000DC012B01FA019C91923008F439C1EB010D
:102EF0008881823008F433C1943069F4843009F059
:102F00002FC111969C9111978981981709F428C1B6
:102F1000A6E3B2E025C1843009F421C18230A9F4CE
:102F2000923009F01DC19A01AD0188E0EA010990D3
:102F3000AE01E90109929E018150C1F7E201898148
:102F400011969C918923818308C1923009F407C1AD
:102F500012962D903C901397EB018A819B811496D9
:102F6000AD90BD90CD90DC901797EC80FD800E81E8
:102F70001F819101281B390BB90137FF04C0662757
:102F80007727621B730B603271050CF061C012165B
:102F900013066CF537014801062E04C096948794F9
:102FA000779467940A94D2F721E030E040E050E053
:102FB00004C0220F331F441F551F6A95D2F72150BA
:102FC0003040404050402E213F21402351232115C5
:102FD00031054105510521F021E030E040E050E0AD
:102FE00079018A01E628F728082919293CC0232BF2
:102FF000D1F1260E371E35014601062E04C09694E7
:103000008794779467940A94D2F721E030E040E007
:1030100050E004C0220F331F441F551F6A95D2F79A
:1030200021503040404050402A213B214C215D211D
:10303000211531054105510521F021E030E040E046
:1030400050E059016A01A628B728C828D9280BC022
:10305000821593052CF01C01AA24BB24650103C032
:10306000EE24FF24870111969C91D20111968C9138
:10307000981709F445C0992339F0A80197012A1936
:103080003B094C095D0906C0A60195012E193F09AF
:10309000400B510B57FD08C01182338222822483DA
:1030A0003583468357831DC081E08183338222822A
:1030B00088279927DC01821B930BA40BB50B848313
:1030C0009583A683B7830DC0220F331F441F551F5E
:1030D0002483358346835783828193810197938329
:1030E00082832481358146815781DA01C9010197A4
:1030F000A109B1098F5F9F4FAF4FBF4328F30BC0AA
:10310000918333822282EA0CFB1C0C1D1D1DE4827C
:10311000F5820683178383E080832481358146818D
:10312000578157FF1AC0C901AA2797FDA095BA2F4A
:1031300081709070A070B07056954795379527951F
:10314000822B932BA42BB52B84839583A683B783E3
:1031500082819381019693838283DF0101C0D20132
:10316000CD01CDB7DEB7E2E10C943C1EA0E2B0E0A9
:10317000ECEBF8E10C942C1E69837A838B839C839F
:103180002D833E834F835887E9E0EE2EF12CEC0E21
:10319000FD1ECE010196B7010E943B1D8E010F5E00
:1031A0001F4FCE010596B8010E943B1D8A8991E010
:1031B00089278A8BC701B801AE01475E5F4F0E9425
:1031C0006A170E94661CA096E6E00C94481EA0E2D6
:1031D000B0E0EDEEF8E10C942C1E69837A838B83CA
:1031E0009C832D833E834F835887F9E0EF2EF12C8B
:1031F000EC0EFD1ECE010196B7010E943B1D8E0113
:103200000F5E1F4FCE010596B8010E943B1DC701FE
:10321000B801AE01475E5F4F0E946A170E94661CAC
:10322000A096E6E00C94481EA0E2B0E0EAE1F9E1E5
:103230000C94201E69837A838B839C832D833E8329
:103240004F835887CE010196BE01675F7F4F0E9472
:103250003B1DCE010596BE016F5E7F4F0E943B1D58
:103260009985923088F089898230C8F0943019F4B9
:10327000823051F404C0843029F4923081F486E322
:1032800092E0C6C0923049F420E09A858A8998136A
:1032900021E02A87CE010996BBC0823049F420E0A4
:1032A0009A858A89981321E02A8BCE014196B0C075
:1032B0002D843E844F8458886D887E888F88988CB2
:1032C000EE24FF248701AA24BB24650140E050E0DE
:1032D00060E070E0E0E0F0E0C10181709070892B67
:1032E000E9F0E60CF71C081D191D9A01AB012A0D27
:1032F0003B1D4C1D5D1D80E090E0A0E0B0E0E614B9
:10330000F7040805190520F481E090E0A0E0B0E0A2
:10331000BA01A901480F591F6A1F7B1FAA0CBB1CC9
:10332000CC1CDD1C97FE08C081E090E0A0E0B0E07E
:10333000A82AB92ACA2ADB2A3196E032F10549F0D7
:10334000660C771C881C991C5694479437942794D4
:10335000C3CFFA85EA892B893C898B859C85280F08
:10336000391F2E5F3F4F17C0CA0181709070892BA3
:1033700061F016950795F794E79480E090E0A0E05F
:10338000B0E8E82AF92A0A2B1B2B76956795579502
:1033900047952F5F3F4F77FDE7CF0CC0440F551F78
:1033A000661F771F17FD4160EE0CFF1C001F111FE9
:1033B00021503040403090E0590790E0690790E498
:1033C000790760F32B8F3C8FDB01CA018F779070F8
:1033D000A070B07080349105A105B10561F447FD7E
:1033E0000AC0E114F1040105110529F0405C5F4FAA
:1033F0006F4F7F4F40781A8EFE1711F081E08A8F51
:103400004D8F5E8F6F8F78A383E0898FCE014996B1
:103410000E94661CA096E2E10C943C1EA8E1B0E07C
:10342000E4E1FAE10C94281E69837A838B839C8300
:103430002D833E834F835887B9E0EB2EF12CEC0EA1
:10344000FD1ECE010196B7010E943B1D8E010F5E4D
:103450001F4FCE010596B8010E943B1D29852230E1
:1034600008F47EC03989323010F4B8017CC08A85F6
:103470009A8989278A87243011F0223031F4231762
:1034800009F06EC066E372E06EC0343039F41D8618
:103490001E861F86188A1C861B8604C0323021F4C3
:1034A00084E08987B7015FC02B853C858B899C8927
:1034B000281B390B3C872B87ED84FE840F851889E8
:1034C000AD88BE88CF88D88CEA14FB040C051D0596
:1034D00040F4EE0CFF1C001F111F215030403C87B0
:1034E0002B8720E030E040E050E080E090E0A0E07A
:1034F000B0E460E070E0EA14FB040C051D0540F048
:10350000282B392B4A2B5B2BEA18FB080C091D09C9
:10351000B695A79597958795EE0CFF1C001F111F78
:103520006F5F7F4F6F31710531F7DA01C9018F7716
:103530009070A070B07080349105A105B10561F460
:1035400027FD0AC0E114F1040105110529F0205CF2
:103550003F4F4F4F5F4F20782D873E874F87588BC7
:10356000BE01675F7F4FCB010E94661C6896EAE050
:103570000C94441EA8E1B0E0E0ECFAE10C942C1E9F
:1035800069837A838B839C832D833E834F83588703
:1035900089E0E82EF12CEC0EFD1ECE010196B7015C
:1035A0000E943B1D8E010F5E1F4FCE010596B80194
:1035B0000E943B1D8985823040F08989823028F045
:1035C000C701B8010E94B31D01C08FEF6896E6E005
:1035D0000C94481EA8E1B0E0E0EFFAE10C942C1E38
:1035E00069837A838B839C832D833E834F835887A3
:1035F00089E0E82EF12CEC0EFD1ECE010196B701FC
:103600000E943B1D8E010F5E1F4FCE010596B80133
:103610000E943B1D8985823040F08989823028F0E4
:10362000C701B8010E94B31D01C08FEF6896E6E0A4
:103630000C94481EA8E1B0E0E0E2FBE10C942C1EE3
:1036400069837A838B839C832D833E834F83588742
:1036500089E0E82EF12CEC0EFD1ECE010196B7019B
:103660000E943B1D8E010F5E1F4FCE010596B801D3
:103670000E943B1D8985823040F08989823028F084
:10368000C701B8010E94B31D01C081E06896E6E061
:103690000C94481EACE0B0E0E0E5FBE10C94301E79
:1036A00069837A838B839C83CE010196BE016B5F15
:1036B0007F4F0E943B1D8D81823061F1823050F13D
:1036C000843021F48E81882351F12EC02F813885DA
:1036D00037FD20C06E812F3131051CF06623F9F0D3
:1036E00023C08EE190E0821B930B29853A854B85A0
:1036F0005C8504C056954795379527958A95D2F7EE
:103700006623B1F050954095309521953F4F4F4F2E
:103710005F4F0EC020E030E040E050E009C02FEFE6
:103720003FEF4FEF5FE704C020E030E040E050E8BB
:10373000B901CA012C96E2E00C944C1EA8E0B0E05E
:10374000E4EAFBE10C94281E7B018C0161157105F4
:103750008105910519F482E0898360C083E0898343
:103760008EE1C82ED12CDC82CB82ED82FE820F83CB
:103770001887C801B7010E94171CFC013197F7FF99
:103780003BC0222733272E1B3F0B57016801022E17
:1037900004C0D694C794B794A7940A94D2F740E093
:1037A00050E060E070E081E090E0A0E0B0E004C0B4
:1037B000880F991FAA1FBB1F2A95D2F70197A1094D
:1037C000B1098E219F21A023B1230097A105B10546
:1037D00021F041E050E060E070E04A295B296C296B
:1037E0007D294D835E836F8378878EE190E08E1B09
:1037F0009F0B9C838B8312C0309781F00E2E04C0E8
:10380000EE0CFF1C001F111F0A94D2F7ED82FE82FE
:103810000F831887CE1ADF0ADC82CB821A82CE0190
:1038200001960E94661C2896EAE00C94441EEF92D2
:10383000FF920F931F937B018C0180E0E81680E0DC
:10384000F80681E0080780E0180788F48FEFE81693
:10385000F1040105110531F028F088E090E0A0E0C6
:10386000B0E017C080E090E0A0E0B0E012C080E0DF
:10387000E81680E0F80680E0080781E0180728F0E5
:1038800088E190E0A0E0B0E004C080E190E0A0E03A
:10389000B0E020E230E040E050E0281B390B4A0B5A
:1038A0005B0B04C016950795F794E7948A95D2F7B9
:1038B000F701E25CFD4F8081281B31094109510964
:1038C000C9011F910F91FF90EF900895DF92EF9241
:1038D000FF920F931F93FC01E480F580068117810E
:1038E000D1808081823048F480E090E0A0E1B0E0B7
:1038F000E82AF92A0A2B1B2BA5C0843009F49FC0A3
:10390000823021F4EE24FF24870105C0E114F10484
:103910000105110519F4E0E0F0E096C062817381C1
:103920009FEF623879070CF05BC022E83FEF261B5F
:10393000370B2A3131052CF020E030E040E050E038
:103940002AC0B801A701022E04C076956795579545
:1039500047950A94D2F781E090E0A0E0B0E004C07F
:10396000880F991FAA1FBB1F2A95D2F70197A1099B
:10397000B1098E219F21A023B1230097A105B10594
:1039800021F081E090E0A0E0B0E09A01AB01282BAB
:10399000392B4A2B5B2BDA01C9018F779070A0700D
:1039A000B07080349105A105B10539F427FF09C035
:1039B000205C3F4F4F4F5F4F04C0215C3F4F4F4F44
:1039C0005F4FE0E0F0E02030A0E03A07A0E04A07D7
:1039D000A0E45A0710F0E1E0F0E079018A0127C085
:1039E0006038710564F5FB01E158FF4FD801C7014C
:1039F0008F779070A070B07080349105A105B105EB
:103A000039F4E7FE0DC080E490E0A0E0B0E004C02F
:103A10008FE390E0A0E0B0E0E80EF91E0A1F1B1F44
:103A200017FF05C016950795F794E794319687E040
:103A300016950795F794E7948A95D1F705C0EE247B
:103A4000FF248701EFEFF0E06E2F679566276795FB
:103A5000902F9F77D794DD24D7948E2F8695492F6A
:103A6000462B582F5D29B701CA011F910F91FF9076
:103A7000EF90DF900895FC01DB01408151812281AC
:103A8000622F6F7770E0221F2227221F9381892FD8
:103A9000880F822B282F30E0991F9927991F1196A4
:103AA0009C93119721153105A9F541155105610523
:103AB000710511F482E037C082E89FEF13969C9362
:103AC0008E9312979A01AB0167E0220F331F441FB8
:103AD000551F6A95D1F783E08C930DC0220F331FD9
:103AE000441F551F12968D919C9113970197139621
:103AF0009C938E931297203080E0380780E048072F
:103B000080E4580758F314962D933D934D935C939E
:103B1000179708952F3F310579F441155105610537
:103B2000710519F484E08C93089564FF03C081E06B
:103B30008C9312C01C9210C02F57304013963C93A8
:103B40002E93129783E08C9387E0440F551F661FD6
:103B5000771F8A95D1F7706414964D935D936D939A
:103B60007C93179708951F93DC01FB019C91923081
:103B700008F447C08081823008F443C0943051F487
:103B800011961C91843099F58181682F70E0611B3A
:103B900071093FC0843021F0923031F48230B9F1A4
:103BA0008181882389F12DC011961C911197823053
:103BB000F1F081811817D9F412962D913C91139749
:103BC000828193818217930794F028173907BCF0FC
:103BD00014968D919D910D90BC91A02D24813581DD
:103BE00046815781281739074A075B0718F41123C4
:103BF00041F00AC082179307A407B50740F41123C8
:103C000019F061E070E005C06FEF7FEF02C060E087
:103C100070E0CB011F910895AA1BBB1B51E107C0A7
:103C2000AA1FBB1FA617B70710F0A61BB70B881F4C
:103C3000991F5A95A9F780959095BC01CD010895DB
:103C40002F923F924F925F926F927F928F929F92AC
:103C5000AF92BF92CF92DF92EF92FF920F931F939A
:103C6000CF93DF93CDB7DEB7CA1BDB0B0FB6F8944B
:103C7000DEBF0FBECDBF19942A88398848885F847B
:103C80006E847D848C849B84AA84B984C884DF80FC
:103C9000EE80FD800C811B81AA81B981CE0FD11DE0
:103CA0000FB6F894DEBF0FBECDBFED010895F894B6
:023CB000FFCF44
:103CB20001006400500064008C0002000200715197
:103CC200424F543120465900424F5431204F4B004D
:103CD200424F543120474F494E4720544F205441C0
:103CE2004200E02E701700000000000000000001FA
:103CF2000202030303030404040404040404050588
:103D0200050505050505050505050505050506065F
:103D12000606060606060606060606060606060641
:103D2200060606060606060606060606060607072F
:103D32000707070707070707070707070707070711
:103D42000707070707070707070707070707070701
:103D520007070707070707070707070707070707F1
:103D620007070707070707070707070707070808DF
:103D720008080808080808080808080808080808C1
:103D820008080808080808080808080808080808B1
:103D920008080808080808080808080808080808A1
:103DA2000808080808080808080808080808080891
:103DB2000808080808080808080808080808080881
:103DC2000808080808080808080808080808080871
:103DD2000808080808080808080808080808080861
:0E3DE200080808080808080808080808080863
:040000050080034C28
:00000001FF
